:020000040800F2
:1000000018070020D5000008971C0008951C000860
:1000100000000000000000000000000000000000E0
:10002000000000000000000000000000CD1F0008DC
:100030000000000000000000991C0008CF1F00080D
:100040000501000805010008050100080501000878
:100050000501000805010008050100080501000868
:100060000501000805010008C1010008050100089C
:100070000501000805010008050100080501000848
:100080000501000800000000000000000501000854
:100090000000000005010008050100080501000836
:1000A0000000000005010008050100080501000826
:1000B0000501000800000000050100080501000816
:1000C0000348854600F064F800480047E52400082E
:1000D000180700200C4880F308880C480168090EB6
:1000E0000B4A914205D10B480B4901600B480C4962
:1000F00001600C4880470C480047FEE7FEE7FEE73A
:10010000FEE7FEE7FEE700001807002004000000FD
:100110001F00000018100240010000000000014014
:1001200000000000D91F0008C1000008D2B201E0A1
:100130000270401C491EFBD270470022F6E710B542
:1001400013460A4604461946FFF7F0FF204610BD45
:1001500070B50446002903D000202022012310E0BE
:10016000002801D00020C043C046C0460DE025460F
:10017000D5408D4205D30D469540641B1D469540E4
:1001800040191546521E002DF1DC214670BD0000BD
:100190001CB5094800900948019005460126009CBD
:1001A00005E0E36807CC33430C3C98471034AC427D
:1001B000F7D3FFF789FF0000742C0008942C000887
:1001C00080B5024800F005F880BDC0461000002050
:1001D000FEE7F0B585B0C16B026C04273C46029285
:1001E000944003910E68214631404B424B410490AC
:1001F00005682868014639404A424A411A4330D0CE
:100200002B4601220227014639404C424C41029DB7
:10021000AF40374201921146324600D02146049E3B
:100220003446203400292CD0082108404742474159
:100230002846EA401107019D00D53D46002D1ED1FC
:1002400019680E229143196001210A468240039BDE
:100250005A60B163002222706170316B00290CD1A9
:100260000DE02968890602D42968B94329600399F9
:100270004C60049EF16A002901D03046884705B0E1
:10028000F0BD1968890605D419680A2291431960DE
:10029000012161700021217003994F60B16A00292A
:1002A000EBD1ECE7F0B585B000282ED0054620351F
:1002B00002216970C4C80468416801918168029193
:1002C000C1680391016904911168124B0B403343DB
:1002D0003B43234301990B4302990B4303990B437F
:1002E00004990B4313600024C4620B4901632C7012
:1002F0000A490C385218142106461046FFF728FF09
:10030000800030640120687000E00124204605B0C0
:10031000F0BDC0460FC0FFFF00000240F8FFFDBF68
:10032000F0B582B004462020255C0220012D2AD0A1
:10033000019226462036012232707778012F20D193
:10034000022070700020A0632668376897433760EA
:10035000E56B0095276C1546BD40009F7D6073607E
:100360006368102B019F00D00F46B760102B00D0A0
:100370000199F1603168E36A002B06D00E2319431E
:1003800009E00021317002B0F0BD0A231943316049
:10039000316804239943316031681143316002B000
:1003A000F0BD0000B0B5044600F0E6F80546601C5C
:1003B00002D0C8480078241800F0DEF8401BA042A4
:1003C000FAD3B0BDF0B58CB002900C68002C00D10F
:1003D000B9E05E48029A824201D0052000E0022086
:1003E00000902032019200231D460A9309910CE0EF
:1003F00032433A605B1C0C682046D8400A9A121DB2
:100400000A92AD1C002800D19DE0012706979F406D
:100410003C400794EED0039303200246AA40D24307
:100420002B464D682E460640741E012C05950493FC
:1004300013D80892029A9068089C2040CC689C408F
:1004400004439460E806C00F039B98405468BC4383
:100450001746089A04437C6007E0032E029F039B23
:1004600003D106460599049D1FE0F86810400999DC
:100470008C68049DAC400443FC60022E059914D1A5
:100480001C200A9908400F218140DC08A400019E2D
:1004900036598E430892099A116981403143019877
:1004A00001515168089A03260E40AE40386810404A
:1004B000304338608803800F09999BD091490868C0
:1004C000069C20430860086820400B9003201E46CD
:1004D00086430B981F4831580920C006029A824271
:1004E00005D01D488242009F02D1274600E0002728
:1004F0000C200A9A10400F248440A143154AB418D6
:1005000087400F432760124FBA6809994868C402B0
:1005100002D5079E324301E0079EB243BA60FA68F3
:10052000840201D5324300E0B243FA607A68840362
:1005300001D5324300E0B2437A603A68C00300D587
:1005400056E7B24355E70CB0F0BDC046000800487E
:100550000004014008000140000400480069084010
:10056000411E88417047002A02D0182281507047EE
:1005700028228150704700003F4800687047C046FD
:10058000B0B500281DD00446C06F002805D17820E2
:1005900000212154204601F049FB2420E067206817
:1005A00001680125A9430160606A002802D0204645
:1005B00001F094FD204601F05DFE002803D028469E
:1005C000B0BD0120B0BD0920C102206842688A4345
:1005D00042608168222291438160816808220A4337
:1005E0008260016801220A430260204601F0E0FDBA
:1005F00005462846B0BD0000B0B5002823D004460B
:100600000068134901601349016061684160A16895
:100610008160FFF7B1FF05462068C16849070AD02D
:10062000FFF7AAFF411B20682829F6D3C1684907B4
:10063000F3D00320B0BDE16802698A4205D10949BF
:1006400001600020B0BD0120B0BD01610020B0BD3F
:10065000CCCC000055550000006802490160002024
:100660007047C046AAAA00001A48007802490A68E2
:10067000101808607047C0461003002010B5DE480F
:10068000016810220A4302600024204600F004F8AA
:1006900000F024F8204610BDB0B504467D20C0000F
:1006A0000C490978FFF754FD0146DB480068FFF765
:1006B0004FFD00F08FFE0125032C09D8002807D13B
:1006C0000025E84321462A4600F02AF80248046043
:1006D0002846B0BD040000200800002082B0094870
:1006E00001680122114301600168114001910199E3
:1006F000110742680A434260406808400090009831
:1007000002B0704718100240002805D41F2108408D
:1007100001218140014801607047C04600E100E0CE
:10072000002805D40322034693430A4A9A1803E09B
:100730000C220240064BD2188007C00E8901C9B2B4
:100740008140FF238340106898430843106070473E
:1007500014ED00E000E400E0BFF34F8F04480549CA
:100760000160BFF34F8F00BF00BF00BF00BFFAE7BB
:100770000CED00E00400FA05F0B587B0044680787F
:10078000C007454F4FD00120059001073A1F106860
:100790000840049006D110680843106010680840B3
:1007A00006900698029203913C4F3868C00512D417
:1007B00005980602386830433860FFF7DDFE0546CD
:1007C0003868304207D1FFF7D7FE401B6428F7D9BD
:1007D000032007B0F0BD0320019000022E4F3968BE
:1007E000014012D06268024091420ED00598000488
:1007F00039683A6802433A603A6882433A60084688
:10080000274A10403860C80736D138682449084064
:100810006168014339600498002804D1029A106885
:100820000399884310602168C80714D188061AD438
:10083000880305D5386980229043626902433A6192
:100840000020490505D539694022914322690A43B0
:100850003A6107B0F0BD386903229043A2680243B1
:100860003A618806E4D5386910229043E268024371
:100870003A618803DED4E3E7FFF77EFE05465F4E6C
:1008800038688007C1D4FFF777FE401BB042F7D924
:10089000019807B0F0BDC046201002400070004033
:1008A000FFFCFFFFF0B581B0002842D00D460446A2
:1008B000514B186801210840854208D91A68012067
:1008C00082432A431A601A680240AA4267D120680C
:1008D0008207664E0CD5420704D507221202336800
:1008E000134333603268F0239A43A36813433360A1
:1008F000C00721D1404A1168012001408D4205D234
:100900001168814311601168C90748D121784907EE
:10091000564F06D5072109023A688A43E168114318
:1009200039603B681907890F514A02290FD21446D2
:1009300052E0012001B0F0BD6268032A2AD0022AE9
:100940004A4B08D0181F012A2BD1006824E0032944
:100950002CD1484C40E0181F0068800108461ED585
:10096000186803210091884310431860FFF704FEC4
:100970000646224F3D4800680C2101406068800017
:100980008142B7D0FFF7F8FD801BB842F2D900983A
:1009900001B0F0BD354B186B80030846E0D401B0C0
:1009A000F0BD006880070846F9D5D9E70321CD03DB
:1009B00099022B40090F304C645CB96A0F260E4037
:1009C0002E49895DAB4203D000048342104600E00B
:1009D0002848FFF7BDFB444338680006000F08496C
:1009E000085CC4400C48046000242046FFF754FE15
:1009F000204601B0F0BDC046002002408813000030
:100A00003A2C000804480068184909684905490F4C
:100A1000024A515CC8407047000000204A2C000880
:100A2000B0B512490A681007830F1148022B02D390
:100A3000032B01D10F48B0BD0323DB0394021A40FE
:100A4000240F0D4D2C5D896A0F250D400B49495D22
:100A50009A4203D001231B049A4200E00548FFF7A5
:100A600077FB014620464843B0BDC0460410024013
:100A700000127A00006CDC02522C0008622C000884
:100A8000F0B587B004460120002C00D132E204907A
:100A90002078C007FC4E05940CD071680C200140F2
:100AA000042900D08BE03068800303D560680028FB
:100AB00000D129E12078800721D570680007800FD8
:100AC0000ED070680C210140082900D094E003206A
:100AD000C003716801400120C003814200D08BE057
:100AE00030688007059C03D5E068012800D00BE141
:100AF0003068F82188432169C90001433160059CB1
:100B00002078000724D42078400734D42078C00609
:100B100000D4C6E0706B059949694A1D00D1B5E063
:100B2000012900D036E1042108437063706B012174
:100B300001437163FFF720FD0546706B800700D508
:100B4000A7E0FFF719FD411B03200229F5D9D1E1E8
:100B5000706AE169002978D0012108437062FFF7CB
:100B60000BFD0546706A8007CDD4FFF705FD401BDD
:100B70000228F7D984E1012003900107F0690840B9
:100B8000029006D1F0690843F061F06908400690D0
:100B900006980191D84F3868C00542D403980402E2
:100BA000386820433860FFF7E7FC05463868204284
:100BB00037D1FFF7E1FC401B6428F7D960E1716889
:100BC0000140082908D10320C003716801400120B9
:100BD0000004814200D166E76268306801214F0459
:100BE000002A00D123E1052A00D119E1012A00D011
:100BF00033E10904084336E13068059CE1680029C7
:100C000033D0012108433060FFF7B6FC0546306859
:100C1000800700D56CE7FFF7AFFC401B0228F6D930
:100C20002EE105988168306AB44F002900D1D9E0DF
:100C3000052900D1C3E0012900D1C4E0039988430C
:100C40003062306A04218843BFE00121884370622A
:100C5000FFF792FC0546706A800700D453E7FFF760
:100C60008BFC401B0228F6D90AE101218843306041
:100C7000FFF782FC05463068800700D43FE7FFF7A6
:100C80007BFC411B03200229F5D933E10421884371
:100C90007063706BF821884305998969C900014325
:100CA00071630598007880060BD571680C200140AF
:100CB0000C294DD1706B800303D50598006A01287B
:100CC00022D10598446A002C1BD070680C21014089
:100CD00008291CD1012C17D00320C20370680240E0
:100CE000F16A059CA36A9A420ED10F221140236B30
:100CF000994209D191040840E16A8842049800D0E1
:100D0000F8E0002007B0F0BD049807B0F0BD012066
:100D1000020631680492914331604706FFF72CFCCC
:100D20000546022C0AD13068384200D1C1E0FFF7F5
:100D300023FC411B03200229F5D9DBE0306838424F
:100D4000DFD0FFF719FC411B03200229F6D9D1E0BF
:100D500071680140082905D10320C0037168014072
:100D60008142A7D0706B0599096A002900D18DE0F6
:100D700001210A04104370634C04FFF7FDFB054694
:100D8000706B20429DD1FFF7F7FB411B0320022926
:100D9000F6D9AFE0042108437063706B01218843EA
:100DA0007063FFF7E9FB0546706B800700D478E7B6
:100DB000FFF7E2FB411B03200229F5D99AE0042149
:100DC00008433062306A039908433062FFF7D4FB6E
:100DD0000546306A800719D4FFF7CEFB401BB842A6
:100DE000F7D94DE0039988433062306A0421884383
:100DF0003062FFF7C1FB0546306A800706D5FFF772
:100E0000BBFB411B0320B942F6D973E002980028CE
:100E1000059C00D07AE6F06901998843F06175E697
:100E20008A04104330600904306808431BE00A0458
:100E3000904330608804316881433160FFF79CFB48
:100E40000546059C3068384200D133E6FFF794FB35
:100E5000411B03206429F5D94CE00A04904330601B
:100E60008904306888433060FFF786FB05463068A8
:100E7000384200D01EE6FFF77FFB401B6428F6D9FE
:100E8000032007B0F0BDC0460010024001210A0453
:100E9000904370634C04FFF76FFB0546706B204274
:100EA00000D10EE7FFF768FB411B03200229F5D9AB
:100EB00020E0F06A0F218843059A116B0143F1622B
:100EC0007B20C00371688143D06A0843916A014363
:100ED00071603068049908433060FFF74DFB0446A9
:100EE0003068384200D00CE7FFF746FB011B0320B7
:100EF0000229F5D907B0F0BD00700040881300004A
:100F000070470000F0B585B000280AD005465C3572
:100F100041218E00416A002906D00021016114217F
:100F200006E0012005B0F0BD4168B14202D01C21AD
:100F300000224250002787626978002905D10021EC
:100F40002970044600F058F82046022104950191CA
:100F5000697001680A6840239A4303910A60C26875
:100F60009C4B01259A422B4600D33B461B03ED02C6
:100F700015430F27390202918D4201D00025856269
:100F80004568876835402124A4023C4064190569FE
:100F900001990D4025434169012421402943FC3634
:100FA00087693E400E43C16938250D403543016ACB
:100FB00080260E402E436103856A0D403543039E13
:100FC0003560390C04250D4002990A4013432B4328
:100FD000416A10220A401A43416B08230B40134315
:100FE0007360E102F2698A43F261002101660846FA
:100FF00004994C7005B0F0BD70B586B0044600266B
:101000000596049603960296019600681D4988424B
:1010100001D006B070BD012528031B494A68024370
:101020004A604A6802400092009868040A680243D5
:101030000A60096801400091059603200490039618
:10104000022002901148019000980920C00601A9D1
:10105000FFF7B8F968030E4D80210E4A44C52E6093
:101060006960AE60EE602E616861083D2846FFF75A
:1010700019F9002801D0FFF7ABF86C62A56506B03E
:1010800070BDC0460030014014100240E0800000F6
:10109000100000201C000240F0B583B013460A4641
:1010A00005464435697E01290ED18468002C0FD194
:1010B0004121890046688E420AD104216976114691
:1010C00000F0AAF8014607E002210020287603E09C
:1010D000297E012903D10221084603B0F0BD012178
:1010E0002976002AF1D0002BEFD004216976002761
:1010F00007666B8002642B80C76407658787C78794
:10110000016801230293DB039C4208D10B68402451
:10111000A3430B6001239B030C689C430C604B684A
:101120002B4C23404B604C68C368A34EB3420190E4
:1011300005D301231B039C434C60846D1FE0029B7D
:101140001E03009634434C609E02846D6369B34273
:1011500015D14B68009EB3434B606E884B68F60711
:1011600005D11B4803404B606888400806E00298A0
:10117000400303434B6068884008401C68808F48E8
:10118000914B8F4EA362E6622063009767636B8882
:101190000C312046FFF7C4F8002804D001986030D5
:1011A000102202990FE0019800680168490603D4F3
:1011B000016840220A430260416820220A434260DB
:1011C000001D012200990368134303607DE7C046B8
:1011D000FFDFFFFF0107000010B50C4C2078FE2157
:1011E0000140AA2901D0FFF7B7FA204601F002FC1E
:1011F000227801210A400920C0060903FFF7B3F94C
:10120000034810222146FFF747FF10BD00030020CE
:101210006400002070470000F0B585B005464435F5
:101220002C7E012C01D10224C3E001262E766F7E94
:10123000012F2BD1002950D0002A4ED0002B34464C
:1012400000D1B4E004920C46697E042901D0052146
:10125000697600260666C3876B8003214A0301680E
:101260001F464B6893434B6087878463049A0264EC
:1012700003972F80C66406654F68C2684E4B9A423A
:1012800016D30122120397434F604AE0039304925E
:101290004124A300426802249A4200D087E0042F30
:1012A00000D084E08268002A049A039BC2D07EE0CA
:1012B00001231A03029217434F609F02426D526945
:1012C000BA4214D14C68039AD207019307D19A030A
:1012D00094434C60C28F530807E0344667E09A039A
:1012E00014434C60C28F5208531CC387019B826D0C
:1012F0005269BA4215D11C464A68029B9A434A6019
:101300006A884B68D20705D1620393434B606A88B1
:10131000520805E0620313434B606A885208521C6E
:101320006A80846D254A226366636B7E042B01D03C
:10133000244F00E0224F049AE762042B01D0234B94
:1013400000E0214B049007466037A3626B880C31A4
:101350002046FEF7E5FF1021002801D0012423E0FC
:10136000039104990A685068012420435060486D35
:101370008662C66206634663CB8F896B0C32FEF7CA
:10138000CFFF039900280FD104980068016849062F
:1013900003D4016840220A430260416820220A43C4
:1013A0004260071D02213446386808433860002037
:1013B0002876204605B0F0BD010700009B1C000800
:1013C000BD1C0008C71C0008D11C0008971D0008A0
:1013D00070477047401E010E01D001207047074939
:1013E000074A5060074803680B40032189075918D2
:1013F000016000209060072111607047FFFFFF002F
:1014000010E000E020ED00E070B53C22825C012A93
:1014100001D1022070BD03463C3300221A703F23E5
:101420001B02CC689C430F239D028E68AE4326436B
:10143000DB024C689C43344307231B030D689D4328
:10144000254303235B030C699C432C434B692343D3
:101450000124A403A343C9691943006841641046E9
:1014600070BD0000B0B53C22825C012A01D102208F
:10147000B0BD02463C3202235370006843687024BA
:10148000A3430D681D438468456001239D07A8425E
:1014900005D06E4DA84202D06D4DA84204D18025E2
:1014A000AC43496821438160002010705370B0BD87
:1014B00002464232002907D0042903D0082909D165
:1014C000442308E0432306E01378012B0DD10223C7
:1014D00013700FE04523C35C012B06D102230829BA
:1014E00005D0042905D1537004E0012070479370A2
:1014F00000E0D3700F22114004228A400068016A84
:1015000091430162016A114301620121CA03436CE4
:10151000134343648A07904205D0E34A904202D0C5
:10152000E24A904204D1826807231340062B02D07E
:1015300002680A43026000207047C046B0B5002828
:101540001DD0044605463C356878002804D10020AB
:101550002870204600F016F80220687001CC214661
:1015600000F066FD0120A872A870E870287168710B
:10157000A871E8712872687268700020B0BD0120FF
:10158000B0BD000081B00068C449884210DC012170
:101590008A07904218D0C54A904220D0C44A90424F
:1015A00030D1080218494A6802434A60496826E077
:1015B000BB49884210D0BB49884219D0BA498842F9
:1015C00020D10120C00215E00F4842680A43426062
:1015D00040680840009014E0012080040AE00A48B6
:1015E000416802221143416040681040009008E0C9
:1015F0000120400404490A6802430A600968014066
:101600000091009801B07047181002403D21415CE4
:10161000012918D101463D3102220A7000680121DA
:101620008A07904205D0A04A904202D09F4A904239
:1016300004D1826807231340062B02D002680A43B4
:1016400002600020704701207047C046002C014016
:1016500000040040F0B53C22825C012A01D1022046
:10166000F0BD02463C32022353704D4E3346773B69
:101670000468A0681840A0600D6800234F2D1FDC8F
:101680001F2D36DD202D38D0302D36D0402D00D006
:1016900083E0206A256A0126B5432562A569F02604
:1016A000B543CE6836012E43A6610A25A843496892
:1016B00001432162A068472101433020814366E055
:1016C0006F2D22DD01204703BD4253D00003854228
:1016D00018465ED0702D60D1A06830404D688E688D
:1016E000C9682E43090231430143A160A0687721F4
:1016F0004CE0002D01D0102D4FD1A06870218843FF
:10170000054307202843A06042E0502D1BD0602DE8
:1017100043D1256A1020C043266A064026620F2660
:101720003603A769B743CE6836033E43A661A026B9
:10173000B5434968090129432162A16867250D4322
:101740000540A56024E0206A256A0126B54325628C
:10175000A569F026B543CE6836012E43A6610A2559
:10176000A843496801432162A06857210143202012
:1017700081430CE0A56835404E688F68C9683743DF
:10178000090239432943A1608003A1680143A16094
:101790001846137001215170F0BD0120F9E7C046D1
:1017A000FF00FFFF10B586B0002105910491039161
:1017B000029101910068394A904217DC0122930797
:1017C00098422CD0394B984245D0394B984263D13E
:1017D0005004384A136803431360126802400092B1
:1017E00000980920C006042210234CE0CC4A904205
:1017F00024D0CC4A904239D0C84A90424CD10120E2
:1018000040042C4A1368034313601268024000929C
:1018100000980F2003020920C006022233E00120B5
:101820004004244A13680343136012680240009284
:1018300000980920C00602220F2324E00120800422
:101840001C4A136803431360126802400092009818
:101850000222802316E09004164B1C6804431C608F
:101860001B6803400093009833230BE0012082049F
:10187000104B1C6814431C601B6813400093009AB3
:10188000030202220C480592049103910221029165
:10189000019301A9FEF796FD06B010BDFF2B014094
:1018A0000048014000440140002C01400004004079
:1018B000002000401410024000040048F0B582B03F
:1018C0003C23C35C012B02D1022002B0F0BD0346D1
:1018D0003C330224E241032A71D8C0467A4412798B
:1018E000520097440156233A0268106A156A01268D
:1018F000B5431562A0438E68064350680C68019496
:101900009569C64FBA4206D0C54CA24203D0C54C19
:10191000A24200D0BAE00C24A643CC680427BC4302
:10192000BE4F3443BA4200D0B3E0B8E00268106A58
:1019300001242502166AAE4316626402A0438C6835
:101940002702074350680C680194D569B34CA24242
:1019500037D03E46A24240D145E00268156A0124D4
:101960002003166A8643166250688E6801960E68D8
:101970000096D769A94EB24205D0A94EB24202D014
:10198000A84EB24266D1A603B0434E69B6010643E3
:1019900061E00268106A146A1025AC4314622024C6
:1019A000A0438C682701074350680C680194946930
:1019B0009A4DAA4220D03E46AA4227D12CE00120CF
:1019C000A8E00326B602B743574CFF3CCE68360268
:1019D0002640924C3E43A24205D0914CA24202D0F6
:1019E000904CA24221D103242403A0434C698F6967
:1019F00027433C01044319E0C026B743CE683601B3
:101A00004025AE43854D3E43AA4205D0844DAA42AF
:101A100002D0844DAA424AD10325AD02A8434D69A4
:101A20008F692F43BD00054342E0044610461C3039
:101A300054607324A543019C2543D5614C68D4634D
:101A40001662D46908252543D561D4690425AC43C1
:101A5000D4615AE0064610461C30566073263602A2
:101A6000B743009E36023E43D6614E681664660355
:101A7000B543019E36032E431662E502D6692E4316
:101A8000D661A402D569A543D56127E03446BA42A0
:101A900005D0634EB24202D0624EB24221D103263B
:101AA0003602B0434E698F6906433E431AE005464D
:101AB00010461830556073252D02AC43019D2D0250
:101AC000254395614C68946316620124E50296698A
:101AD0002E439661A4029569A5439561096909029F
:101AE00014E006461046183056607326B543019E32
:101AF000354395614D685563146294690825254303
:101B0000956194690425AC439461096902680A43AC
:101B1000026000200021197002B0F0BD002C0140CD
:101B20000048014000440140FFFBFFFFB0B5002822
:101B30001DD0044605463C356878002804D10020B5
:101B40002870204600F015F80220687001CC21466C
:101B500000F06EFA0120A872A870E8702871687110
:101B6000A871E8712872687268700020B0BD012009
:101B7000B0BD704710B502463E32002907D0042997
:101B800003D0082909D1402308E03F2306E0137859
:101B9000012B0DD1022313700FE04123C35C012BF5
:101BA00006D10223082905D0042905D1537004E089
:101BB000012010BD937000E0D3701F22114001225C
:101BC00013468B400068016A99430162016A194318
:101BD0000162114988420FDD1049884205D0104B3F
:101BE000984202D00F4B984211D1D303446C1C434E
:101BF000446488420BD105E09107884202D00A492B
:101C0000884204D1816807230B40062B02D001686B
:101C100011430160002010BDFF2B0140002C01404A
:101C200000480140004401400004004010B586B067
:101C30000021059104910391029101910068124ADB
:101C4000904201D006B010BD1048426801230393B2
:101C50009C0322434260426822400092009A9A0408
:101C6000036813430360006810400090059103204F
:101C7000049012200290402001900098044801A98D
:101C8000FEF7A0FB06B010BD003801401410024062
:101C900000040048FEE77047704780B5406A01685D
:101CA0004A6803239A434A60016E10220A4302667F
:101CB0005D2101224254FFF723F980BD80B5406ABF
:101CC000FFF7A8FA80BD80B5406AFFF782FB80BDB0
:101CD000F0B581B00646446AFEF74EFC00903068CD
:101CE0000068800652D4206841682026B1434160D4
:101CF000A16841229700031D002907D16268BA42FA
:101D000004D14020C2433D3218460EE01A68012536
:101D1000AA431A606268BA420AD14022D243EB0356
:101D2000994202D0AB02994202D101681140016090
:101D30002546463564212046009A00F0EBF800283D
:101D400004D0206E30432066266613E06068B842F7
:101D500010D1A0680121CA03904202D089028842B2
:101D600008D10320410264222046009B00F05CF869
:101D70000028E6D1002028800120E875206E002888
:101D800004D02046FFF7BCF801B0F0BD2046FFF7B5
:101D900023FA01B0F0BDF0B581B00646446AFEF703
:101DA000EBFB054630680068800638D42646463688
:101DB000206841682027B943416003200090C10298
:101DC000642220462B4600F02FF800280FD1642112
:101DD00020462A4600F09EF8002808D100984102CB
:101DE000642220462B4600F01FF8002805D0206E04
:101DF00038432066206E3843206620684168009A88
:101E0000914341600020E08730800120F075206E12
:101E1000002804D02046FFF773F801B0F0BD20463B
:101E2000FFF7D6FA01B0F0BDF0B589B01C461546F3
:101E30000E46074607A8002102910170FEF79CFBA1
:101E4000201A06954419FEF797FB04905E48006837
:101E500023214143080D0594604308903968886840
:101E600030422AD03B4638465C3001900391084608
:101E7000029D03E01868816831421CD00327790273
:101E80008E4204D10399097B07AA1170079906991C
:101E9000491CF0D01C46FEF76FFB0499401A0599C7
:101EA00088420CD208980899491E089100282346B8
:101EB000E0D10590DEE72F4628E0029F26E023468A
:101EC00020684168E02291434160412189006268B5
:101ED0008A420CD199680122D3039942234602D049
:101EE0009202914203D10168402291430160012195
:101EF0004A039B6A934205D10368934303600368D6
:101F0000134303600020019A10705170384609B0E5
:101F1000F0BDC046F0B583B016460D460446FEF748
:101F20002BFB301A4719FEF727FB064626480068A8
:101F30004001000D784302902068816800220192E0
:101F4000090602D4019803B0F0BD21465C3100912E
:101F500003E0206881680906F4D5691CFAD0FEF711
:101F60000BFB801BB84207D202980299491E0291CE
:101F70000028EED10746ECE720684168E022914353
:101F800041604121890062688A420BD1A168012227
:101F9000D303994202D09202914203D101684022B8
:101FA0009143016001214A03A36A934205D103686A
:101FB000934303600368134303600020009A10708A
:101FC0005170032003B0F0BD00000020704780B5C1
:101FD000FEF74AFB80BD00001248026801210A4357
:101FE00002604268104B1340436002680F4B13407D
:101FF00003608A040368934303603F22120443682A
:1020000093434360C26A0F239A43C262FF22D432D1
:10201000036B93430363426B8A43426300218160F5
:102020007047C046001002400CB8FF08FFFFF6FEE4
:10203000B0B5056801229407A04205D0214B984213
:1020400002D0214B984204D170239D434B682B430F
:1020500000E02B461D4DA84208DCA0420FD01A4CD0
:10206000A0420CD01C4CA04209D029E0154CA04243
:1020700005D0174CA04202D0164CA04220D1032418
:102080002402A343CC681C4380239C434B69234315
:1020900003608B68C3620B6883620A4B984205D069
:1020A0000B4B984202D00B4B984201D10969016356
:1020B00042610169C90702D0016991430161B0BD64
:1020C0001C46E1E7002C014000040040FF2B0140CA
:1020D000004801400044014000200040B0B5416A82
:1020E0000A070CD4CA0714D18A071CD44A0724D47F
:1020F000CA062CD48A0634D44A063CD44CE00122C9
:10210000D20303685C689443426B22435A60CA0757
:10211000EAD00122520403685C689443826A224335
:102120005A608A07E2D50122120403685C6894436E
:10213000C26A22435A604A07DAD501229204036830
:102140005C689443026B22435A60CA06D2D50122CE
:10215000120303689C689443826B22439A608A0648
:10216000CAD50122520303689C689443C26B224380
:102170009A604A0610D501221305026854689C43F0
:10218000056C2C4354609D4206D103235B055468C3
:102190009C43436C23435360090607D50121C904BE
:1021A000026853688B43806C18435060B0BD0000D8
:1021B000F0B583B00446064678360025F560FEF794
:1021C000DBF903462068016809071ED502952848F7
:1021D000009001256905002220461F4600F0DCF82A
:1021E00000280FD0EFF3108085F3108821680A686B
:1021F00080239A430A6080F31088032020227C21E8
:10220000029D30E020683B46029D0068400723D5D0
:10221000174800900127B9050022204600F0BCF8BD
:10222000002819D0EFF3108087F3108809214901A5
:10223000226813688B43136080F31088EFF31080DB
:1022400087F3108821688A68BA438A6080F310880F
:1022500003202022802106E02020E067B060256670
:1022600064212A4628466250357003B0F0BDC0464E
:10227000FFFFFF01B0B50446006801683C4A0A4010
:10228000A16823690B4365691D431543E1690D434B
:1022900005600322120343689343E2681A434260D5
:1022A000A269236A13430B221202856895431D43DA
:1022B0008560304A904209D02F4A904208D12F4879
:1022C00000688007000F2EA2135802E0002300E0F0
:1022D00010230125EA032E4891420DD1082B42D844
:1022E0007B441B795B009F44043E203E153E3E3EEE
:1022F0001F00FEF787FB0FE0082B34D87B441B79C7
:102300005B009F44043023300C3030302200FEF755
:1023100079FB06E0FEF784FB002806D122E0FEF7F9
:102320007FFB002812D11DE01046400061684A087A
:102330001018FDF70DFF0246103A16498A4212D2D4
:1023400001400007400F08430AE0104661684A0850
:102350001018FDF7FDFE014610390E4A914202D2D7
:102360002168C86000250020A066E0662846B0BD50
:10237000F369FFEF00440040003801403010024094
:10238000000000000400000008000000020000003F
:1023900000127A00F0FF0000F0B585B004931546F6
:1023A0000F460368D9693940C91B4A424A41002196
:1023B00095425BD102910146783101910A9C01213D
:1023C0000091C902039106E0D9693940C91B4A420C
:1023D0004A4195424DD1611CF6D00646FEF7CCF835
:1023E00001460320002C00D17AE0049A891AA14208
:1023F00000D975E03046336819684907E4D5402FA5
:10240000E2D0802FE0D0D969090735D4D969039A81
:102410001142D9D003991962EFF31085012282F39A
:10242000108809214901064603681C688C431C601A
:1024300085F31088EFF3108082F3108831688B6881
:1024400093438B6080F31088336E03202021012B8F
:102450000AD1EFF3108382F31088326814681025D4
:10246000AC43146083F31088334631E0084605B06E
:10247000F0BD029805B0F0BD08211962EFF310809D
:10248000009D85F310880922520133681C6894432B
:102490001C6080F31088EFF3108085F31088326899
:1024A0009368AB43936080F31088306E01280DD1A0
:1024B000EFF31082012080F3108833681C68102528
:1024C000AC431C60334682F3108801E03346284653
:1024D0002022019CA26000221A669A662270E160A6
:1024E00005B0F0BDA0B0FEF7C9F805AC201D302145
:1024F000FDF723FE01200D902821059100250E9562
:102500000C901E951D951C951B951A952046FEF75F
:10251000B7FA002800D0FEE717951695032015900E
:102520000727149714A801242146FEF7BBF90028B9
:1025300000D0FEE71B94199419A8FEF71DF9002896
:1025400000D0FEE709950895079506950595600466
:10255000F94A1168014311601168014019911998F5
:10256000A004116801431160116801401991199884
:102570000920C6062103049130462A46FDF7F3FFE1
:102580000895079506940498059005A9039630468A
:10259000FDF718FFE84908682043086008682040F4
:1025A000059005980A26304629462A46FEF7B8F8CF
:1025B0003046049EFEF7A8F8711EE048E04A24C0A9
:1025C000016041600838FEF717F8002800D0FEE7E8
:1025D0000294FC48056245628562C76205634563F3
:1025E000F9490F22D6013246803A22C00560426086
:1025F0008560C56005610838FEF784FC002800D0BE
:10260000FEE7F2487F24F24942C0056044608560DD
:10261000C5600561179516951595139512950C953E
:102620000B950A950995089507950695059508381F
:10263000FEF784FF002800D0FEE704981490E348DA
:1026400014A9FFF707F8002800D0FEE7DF48FFF7DE
:102650006DFA002800D0FEE7DC4812A9FEF702FF61
:10266000002800D0FEE71A95602719971B951C9546
:102670001D951E951F95D54819A92A46FFF71EF9E5
:10268000002800D0FEE7D14819A90422FFF716F967
:10269000002800D0FEE7CD4819A90822FFF70EF95F
:1026A000002800D0FEE7C94819A90C22FFF706F957
:1026B000002800D0FEE70995089507950695059531
:1026C0000C950298400301900A90C04805A9FEF7B6
:1026D0009BFE002800D0FEE7BC48FFF763F8BD482A
:1026E00085610299890742C00560446085601C9538
:1026F0001B951A95159514950B950A9509950895AE
:102700000838FEF71BFF002800D0FEE70498199058
:10271000B04819A9FEF79EFF002800D0FEE7AD489B
:10272000FFF704FA002800D0FEE7F84814A9FEF7E6
:1027300099FE002800D0FEE70995079506950597B4
:10274000F24805A92A46FFF7B9F8002800D0FEE7AD
:10275000EE4805A90422FFF7B1F8002800D0FEE7F3
:10276000EA4805A90822FFF7A9F8002800D0FEE7EB
:10277000E64805A90C22FFF7A1F8002800D0FEE7E3
:10278000E248FFF70FF8E0488561934942C00560D1
:10279000446085601C951B951A95159514950B95AD
:1027A0000A95099508950838FEF7C8FE002800D05C
:1027B000FEE704981990D44819A9FEF74BFF0028AA
:1027C00000D0FEE7D048FFF7B1F9002800D0FEE7BF
:1027D000CD4814A9FEF746FE002800D0FEE7099573
:1027E000079506950597C84805A92A46FFF766F894
:1027F000002800D0FEE7C44805A90422FFF75EF8D0
:10280000002800D0FEE7022000900790BE4805A9EE
:1028100008220492FFF752F8002800D0FEE7BA48D9
:1028200005A90C22FFF74AF8002800D0FEE7F74878
:10283000FEF7B8FFF6488561684942C0056044600C
:1028400085600B950A95099508950838FEF776FE80
:10285000002800D0FEE7EE48FFF768F9002800D016
:10286000FEE709950098079006950597E84805A9A1
:102870002A46FFF723F8002800D0FEE7E448FEF7D9
:1028800091FFE448564942C0056044608560C560D8
:1028900005610B950838FEF751FE002800D0FEE7D1
:1028A000DC48FFF743F9002800D0FEE71A95199796
:1028B0001B951C951D951E951F95D64819A92A464E
:1028C000FEF7FCFF002800D0FEE709950895079564
:1028D000069505950C9501980A90CE4805A9FEF736
:1028E00093FD002800D0FEE7CA48FEF75BFFCA4808
:1028F0003C4942C0056044608560C56005610B9538
:102900000838FEF71BFE002800D0FEE7C248FFF79C
:102910000DF9002800D0FEE71A9519971B951C9514
:102920001D951E951F95BC4819A92A46FEF7C6FF9E
:10293000002807D0FEE7C0461410024054000020D3
:1029400000300040099508950795069505950C956A
:1029500001980A90B04805A9FEF756FD002800D05E
:10296000FEE7AD48FEF71EFF1F48E12149021F4A5E
:10297000026041608560C5600561049941618561BF
:10298000C56105624562FDF7FBFD002800D0FEE74A
:1029900000F0BEF80A20FDF705FD094C094F144D63
:1029A0002046FDF759FE0298C1030398FDF7D6FDB6
:1029B0000128F5D1102238462946FEF76DFBEFE7D6
:1029C000540000206400002000300140C8000020B6
:1029D000002C0140E80100200004004000200040DD
:1029E00000440140004801407802002000380140C6
:1029F000000300200F214156002904D57F221140F9
:102A0000824A1268D1630E214156002904D57F22E3
:102A100011407F4A126851630D214156002904D5A7
:102A20007F221140794A126811640C214156002915
:102A300004D57F221140774A126851630B21415619
:102A4000002904D57F221140704A126851630A217F
:102A50004156002904D57F2211406B4A12689163C8
:102A600009214156002904D57F221140664A126887
:102A7000D16308214156002904D57F221140624AC2
:102A80001268116407214156002904D57F221140A4
:102A9000614A1268516306214156002904D57F22FC
:102AA0001140594A1268516305214156002904D545
:102AB0007F221140534A1268D163042141560029F4
:102AC00004D57F221140514A126891630321415677
:102AD000002904D57F2211404A4A1268516302211D
:102AE0004156002904D57F221140464A126891635D
:102AF00001214056002800D470477F2108404149F9
:102B0000096808647047C04630020020E8010020D0
:102B1000F0B587B03A48069005900490039003A85A
:102B2000FFF768FF374D2846FEF770FD2846FEF791
:102B3000FDFF002428462146FFF71CF804262846FE
:102B400031460196FFF716F8082102912846FFF753
:102B500011F80C2728463946FFF70CF82A4D28466D
:102B6000FEF754FD2846FEF7E1FF28462146FFF711
:102B700001F828463146FEF7FDFF2846029E314601
:102B8000FEF7F8FF28463946FEF7F4FF1F4D2846AA
:102B9000FEF73CFD2846FEF7C9FF28462146FEF712
:102BA000E9FF28460199FEF7E5FF28463146FEF782
:102BB000E1FF28463946FEF7DDFF154D2846FEF7B2
:102BC00025FD2846FEF7B2FF28462146FEF7D2FF34
:102BD000104D2846FEF71AFD2846FEF7A7FF2846A7
:102BE0002146FEF7C7FF0C4D2846FEF70FFD28468D
:102BF000FEF79CFF28462146FEF75AFC07B0F0BDC1
:102C000080808080C8000020E80100203002002081
:102C10001001002058010020A001002002E008C897
:102C2000121F08C1002AFAD170477047002001E046
:102C300001C1121F002AFBD17047000000000000F4
:102C40000000010203040607080900000000010259
:102C5000030402030405060708090A0B0C0D0E0FF6
:102C600010100102030405060708090A0B0C0D0EDB
:102C70000F100000982C0008000000201000000039
:102C80001C2C0008A82C00081000002008070000D9
:102C90002C2C00080000000000127A000100000047
:082CA000040000000000000028
:04000005080000C12E
:00000001FF
