:020000040800F2
:1000000078090020810100086F1D00086D1D00089F
:1000100000000000000000000000000000000000E0
:10002000000000000000000000000000BD200008EB
:100030000000000000000000711D0008BF20000843
:10004000B1010008B1010008B1010008B1010008C8
:10005000B1010008B1010008B1010008B1010008B8
:10006000B1010008B1010008A1020008B1010008B7
:10007000B1010008B1010008B1010008B101000898
:10008000B10100080000000000000000B1010008FC
:1000900000000000B1010008B1010008B101000832
:1000A00000000000B1010008B1010008B101000822
:1000B000B101000800000000B1010008B101000812
:1000C00000F002F800F04CF812A030C808382418EC
:1000D0002D18AC4201D100F043F80FCCA246AB463C
:1000E0000CA730CF2D1B083F3F197C427F1E544484
:1000F0002D090426F441641EAC4201D300F030F80F
:100100000126334200D0FB1A3343984754465D46DC
:10011000DFE700002C2E00004C2E0000103A02D326
:1001200078C878C1FAD8520701D330C830C101D598
:1001300004680C6070470000704700000023002432
:1001400000250026103A01D378C1FBD8520700D30E
:1001500030C100D50B6070471FB51FBD10B510BD75
:1001600000F06BF81146FFF7F7FF02F083FA00F09A
:1001700083F803B4FFF7F2FF03BC00F089F8000036
:100180000F4880F308880F480168090E0E4A914213
:1001900005D10E480E4901600E480F4901600F4815
:1001A00080470F480047FEE7FEE7FEE7FEE7FEE771
:1001B000FEE700000B480C490C4A0D4B704700004D
:1001C00078090020040000001F0000001810024001
:1001D000010000000000014000000000492100086B
:1001E000C10000087803002078090020780500206D
:1001F0007805002001E004C0091F0429FBD28B0709
:1002000001D50280801CC90700D002707047002908
:100210000BD0C30702D00270401C491E022904D330
:10022000830702D50280801C891EE3E70022EEE7E7
:100230000022DFE7704770477047754600F024F8EA
:10024000AE46050069465346C008C000854618B052
:1002500020B5FFF7AFFF60BCB64600260027C0C53B
:10026000C0C5C0C5C0C5C0C5C0C5C0C5C0C5403D6E
:10027000490849008D46704710B50446C046C0463F
:100280002046FFF776FF10BD0048704710000020A1
:1002900001491820ABBEFEE72600020070470000AF
:1002A00080B5024800F005F880BDC046700000200F
:1002B000FEE7F0B585B0C16B026C04273C460292A4
:1002C000944003910E68214631404B424B410490CB
:1002D00005682868014639404A424A411A4330D0ED
:1002E0002B4601220227014639404C424C41029DD7
:1002F000AF40374201921146324600D02146049E5B
:100300003446203400292CD0082108404742474178
:100310002846EA401107019D00D53D46002D1ED11B
:1003200019680E229143196001210A468240039BFD
:100330005A60B163002222706170316B00290CD1C8
:100340000DE02968890602D42968B9432960039918
:100350004C60049EF16A002901D03046884705B000
:10036000F0BD1968890605D419680A2291431960FD
:10037000012161700021217003994F60B16A002949
:10038000EBD1ECE7F0B585B000282ED0054620353E
:1003900002216970C4C804684168019181680291B2
:1003A000C1680391016904911168124B0B403343FA
:1003B0003B43234301990B4302990B4303990B439E
:1003C00004990B4313600024C4620B4901632C7031
:1003D0000A490C38521814210646104602F098FCBF
:1003E000800030640120687000E00124204605B0E0
:1003F000F0BDC0460FC0FFFF00000240F8FFFDBF88
:10040000F0B582B004462020255C0220012D2AD0C0
:10041000019226462036012232707778012F20D1B2
:10042000022070700020A063266837689743376009
:10043000E56B0095276C1546BD40009F7D6073609D
:100440006368102B019F00D00F46B760102B00D0BF
:100450000199F1603168E36A002B06D00E2319433D
:1004600009E00021317002B0F0BD0A231943316068
:10047000316804239943316031681143316002B01F
:10048000F0BD0000B0B5044600F0DEF80546601C83
:1004900002D0C4480078241800F0D6F8401BA042CF
:1004A000FAD3B0BDF0B589B005900A68002A00D132
:1004B000B2E00B4659480599814201D0052000E081
:1004C00002200190203100910024254607940693D4
:1004D0000DE0104352490860641C1A681046E04061
:1004E0000799091D0791AD1C002800D194E0012651
:1004F0000496A64032400292EED058680321074687
:100500000F407B1E012B039111D80B46AB40059980
:100510008A689A43069BDB68AB4013438B60C00636
:10052000C00FA0404A68B24302434A600399032FB8
:10053000069B059E1BD00846A840F2688243986837
:10054000A8401043F060022F11D11C2007990840E9
:100550000F268640E2089200009FBB58B3430699DD
:100560000E69039986401E43069BBE50059E0846B1
:10057000A8400F4631688143586882033840A8403C
:1005800008433060900FA7D092490868049A10433E
:100590000860086810400890274603988743089829
:1005A000204839580920C006059A824205D01E48C5
:1005B0008242019E02D1049E00E000260C20079A90
:1005C00010400F2282409143164ABA1886400E43CB
:1005D000166013488068069B5E68F10202D5029A95
:1005E000104301E0029A90430D498860C868B10247
:1005F00001D5104300E090430949C8604868B10341
:1006000001D5104300E09043054948600868F103B4
:1006100000D55EE790435DE709B0F0BD00080048F3
:10062000000401400800014000040048006908403F
:10063000411E88417047002A02D01822815070471D
:1006400028228150704700003F4800687047C0462C
:10065000B0B500281DD00446C06F002805D1782011
:1006600000212154204601F04DFB2420E067206842
:1006700001680125A9430160606A002802D0204674
:1006800001F0E4FD204601F0ADFE002803D028462D
:10069000B0BD0120B0BD0920C102206842688A4374
:1006A00042608168222291438160816808220A4366
:1006B0008260016801220A430260204601F030FE98
:1006C00005462846B0BD0000B0B5002823D004463A
:1006D0000068134901601349016061684160A168C5
:1006E0008160FFF7B1FF05462068C16849070AD05D
:1006F000FFF7AAFF401B2828F6D32068C0684007F0
:10070000F2D00320B0BDE16802698A4205D10949EF
:1007100001600020B0BD0120B0BD01610020B0BD6E
:10072000CCCC000055550000006802490160002053
:100730007047C046AAAA00001A48007802490A6811
:10074000101808607047C0467003002010B5DD48DF
:10075000016810220A4302600024204600F004F8D9
:1007600000F024F8204610BDB0B504467D20C0003E
:100770000C49097802F0CCFA0146DC48006802F026
:10078000C7FA00F089FE0125032C09D8002807D1FB
:100790000025E84321462A4600F02AF80248046072
:1007A0002846B0BD040000200800002082B009489F
:1007B0000168012211430160016811400191019912
:1007C000110742680A434260406808400090009860
:1007D00002B0704718100240002805D41F210840BD
:1007E00001218140014801607047C04600E100E0FE
:1007F000002805D40322034693430A4A9A1803E0CB
:100800000C220240064BD2188007C00E8901C9B2E3
:100810008140FF238340106898430843106070476D
:1008200014ED00E000E400E0BFF34F8F03480449FB
:100830000160BFF34F8F00BFFDE7C0460CED00E045
:100840000400FA05F0B587B004468078C007454F2C
:100850004FD00120059001073A1F1068084004900E
:1008600006D110680843106010680840069006988A
:10087000029203913C4F3868C00512D405980602D5
:10088000386830433860FFF7DFFE0546386830428D
:1008900007D1FFF7D9FE401B6428F7D9032007B022
:1008A000F0BD0320019000022E4F3968014012D0A4
:1008B0006268024091420ED00598000439683A6897
:1008C00002433A603A6882433A600846274A104039
:1008D0003860C80736D13868244908406168014348
:1008E00039600498002804D1029A1068039988435B
:1008F00010602168C80714D188061AD4880305D56A
:10090000386980229043626902433A6100204905B8
:1009100005D539694022914322690A433A6107B0FB
:10092000F0BD386903229043A26802433A61880609
:10093000E4D5386910229043E26802433A618803A3
:10094000DED4E3E7FFF780FE05465F4E3868800798
:10095000C1D4FFF779FE401BB042F7D9019807B028
:10096000F0BDC0462010024000700040FFFCFFFFB9
:10097000F0B581B0002842D00D460446514B1868AE
:1009800001210840854208D91A68012082432A4380
:100990001A601A680240AA4267D120688207684E2E
:1009A0000CD5420704D50722120233681343336083
:1009B0003268F0239A43A36813433360C00721D100
:1009C000404A1168012001408D4205D211688143DF
:1009D00011601168C90748D121784907584F06D5D9
:1009E000072109023A688A43E168114339603B688C
:1009F0001907890F534A02290FD2144652E00120E9
:100A000001B0F0BD6268032A2AD0022A4C4B08D0FC
:100A1000181F012A2BD1006824E003292CD14A4C4D
:100A200040E0181F0068800108461ED518680321A1
:100A30000091884310431860FFF706FE0646224FD8
:100A40003F4800680C210140606880008142B7D0B7
:100A5000FFF7FAFD801BB842F2D9009801B0F0BD53
:100A6000374B186B80030846E0D401B0F0BD006836
:100A700080070846F9D5D9E70321CD0399022B4019
:100A8000090F324C645CB96A0F260E403049895D0B
:100A9000AB4203D000048342104600E02A4802F033
:100AA00037F9444338680006000F0849085CC44021
:100AB0000E48046000242046FFF756FE204601B091
:100AC000F0BDC0460020024088130000062F000839
:100AD000064800687047C04604480068184909681D
:100AE0004905490F024A515CC84070470000002088
:100AF000162F0008B0B512490A681007830F114875
:100B0000022B02D3032B01D10F48B0BD0323DB031B
:100B100094021A40240F0D4D2C5D896A0F250D405B
:100B20000B49495D9A4203D001231B049A4200E01D
:100B3000054802F0EDF8014620464843B0BDC046E6
:100B40000410024000127A00006CDC021E2F000824
:100B50002E2F0008F0B587B004460120002C00D1EC
:100B600021E204902078C007FD4E05940CD07168F6
:100B70000C200140042900D08BE03068800303D5AD
:100B80006068002800D12CE12078800721D57068AA
:100B90000007800F0ED070680C210140082900D09A
:100BA00091E00320C003716801400120C00381422D
:100BB00000D088E030688007059C03D5E0680128F4
:100BC00000D00EE13068F82188432169C900014353
:100BD0003160059C2078000724D42078400734D465
:100BE0002078C00600D4C9E0706B059949694A1D98
:100BF00000D1B8E0012900D038E104210843706336
:100C0000706B012101437163FFF71EFD0546706B98
:100C1000800700D5AAE0FFF717FD411B032002293A
:100C2000F5D9C0E1706AE169002973D00121084358
:100C30007062FFF709FD0546706A8007CDD4FFF7A3
:100C400003FD401B0228F7D967E10120039001074B
:100C5000F0690840029006D1F0690843F061F0693C
:100C60000840069006980191D04F3868C0053FD4DF
:100C700003980402386820433860FFF7E5FC054616
:100C80003868204234D1FFF7DFFC401B6428F7D9D5
:100C900043E171680140082908D10320C00371684D
:100CA000014001200004814200D166E7306861689C
:100CB000002903913ED0052900D115E1012939D140
:100CC0000121090416E13068059CE168002939D04A
:100CD000012108433060FFF7B7FC05463068800704
:100CE00000D56FE7FFF7B0FC401B0228F6D914E1EE
:100CF000306A05998C68002C05D0052C00D1CAE01B
:100D0000012C00D1CBE0039988433062306A042182
:100D10008843C6E0012188437062FFF795FC0546D1
:100D2000706A800700D458E7FFF78EFC401B02284A
:100D3000F6D9F2E001210A0490433060890430685A
:100D40008843D8E0012188433060FFF77DFC0546E9
:100D50003068800700D43CE7FFF776FC411B032096
:100D60000229F5D91FE1042188437063706BF821D3
:100D7000884305998969C900014371630598007822
:100D800080060BD571680C2001400C294DD1706B89
:100D9000800303D50598006A012822D10598446A8A
:100DA000002C1BD070680C21014008291CD1012C9B
:100DB00017D00320C20370680240F16A059CA36A41
:100DC0009A420ED10F221140236B994209D191040E
:100DD0000840E16A8842049800D0E4E0002007B0AF
:100DE000F0BD049807B0F0BD0120020631680492FE
:100DF000914331604706FFF727FC0546022C0AD1D4
:100E00003068384200D1ADE0FFF71EFC411B0320E3
:100E10000229F5D9C7E030683842DFD0FFF714FC6B
:100E2000411B03200229F6D9BDE071680140082961
:100E300005D10320C003716801408142A7D0706BC7
:100E40000599096A002977D001210A0410437063CB
:100E50004C04FFF7F9FB0546706B20429ED1FFF76B
:100E6000F3FB411B03200229F6D99CE0042108432F
:100E70007063706B012188437063FFF7E5FB0546E3
:100E8000706B800700D479E7FFF7DEFB411B03207E
:100E90000229F5D987E0042108433062306A0399BA
:100EA00008433062424FFFF7CFFB0546002C0ED0BF
:100EB000306A80070ED4FFF7C7FB401BB842F7D952
:100EC0002BE0FFF7C1FB411B0320B9426BD8306A0E
:100ED0008007F6D402980028059C00D080E6F069CF
:100EE00001998843F0617BE601218A041043306058
:100EF000090430680843306001204704FFF7A4FB71
:100F00000546039800280BD03068384200D03BE6F5
:100F1000FFF79AFB401B6428F6D9032007B0F0BD09
:100F2000059C3068384200D12EE6FFF78DFB411B4F
:100F300003206429F5D936E001210A049043706347
:100F40004C04FFF781FB0546706B204200D125E77A
:100F5000FFF77AFB411B03200229F5D923E0C046A5
:100F600000100240F06A0F218843059A116B01437B
:100F7000F1627B20C00371688143D06A0843916AA3
:100F8000014371603068049908433060FFF75CFBEF
:100F900004463068384200D020E7FFF755FB011BBC
:100FA00003200229F5D907B0F0BDC046007000400B
:100FB0008813000070470000F0B585B000280AD003
:100FC00005465C3541218E00416A002906D000218A
:100FD0000161142106E0012005B0F0BD4168B14275
:100FE00002D01C2100224250002787626978002924
:100FF00005D100212970044600F058F8204602214E
:1010000004950191697001680A6840239A4303912D
:101010000A60C2689A4B01259A422B4600D33B4690
:101020001B03ED0215430F27390202918D4201D0B7
:10103000002585624568876835402124A4023C402C
:101040006419056901990D40254341690124214036
:101050002943FC3687693E400E43C16938250D405F
:101060003543016A80260E402E436103856A0D4098
:101070003543039E3560390C04250D4002990A4022
:1010800013432B43416A10220A401A43416B082341
:101090000B4013437360E102F2698A43F26100215D
:1010A0000166084604994C7005B0F0BD70B586B075
:1010B000044600260596049603960296019600685B
:1010C0001D49884201D006B070BD012528031B4987
:1010D0004A6802434A604A680240009200986804E5
:1010E0000A6802430A6009680140009105960320DE
:1010F0000490039602200290114801900098092064
:10110000C00601A9FFF7CEF968030E4D80210E4AF3
:1011100044C52E606960AE60EE602E616861083D76
:101120002846FFF72FF9002801D0FFF7C1F86C62BD
:10113000A56506B070BDC0460030014014100240E5
:10114000E0800000700000201C000240F0B583B079
:1011500013460A4604464434617E01290ED187684D
:10116000002F0FD14121890045688D420AD1042109
:101170006176114600F0A6F8014607E00221002042
:10118000207603E0217E012903D10221084603B025
:10119000F0BD01212176002AF1D0002BEFD00421EF
:1011A000617600260666638002642380C664066555
:1011B0008687C68701210291C9038F4209D1016840
:1011C0000B684027BB430B6001239B030F689F43C1
:1011D0000F6001684B68294D2B404B604F68C36816
:1011E000A04DAB4204D301231B039F434F601DE07E
:1011F000029D2B031F434F60AD02876D7F69AF4295
:1012000014D14D689D434D6065884B68ED0705D14D
:101210001A4D2B404B6063885B0806E0029D6D030E
:101220002B434B6063885B085B1C63800746806DC3
:101230008D4D904B83628D4BC3620563019646636F
:1012400063880C31FFF7DCF8002803D060371020EA
:1012500002990EE038680168490603D4016840220B
:101260000A430260416820220A434260071D0120B0
:1012700001993A6802433A6081E7C046FFDFFFFF09
:101280000107000010B50C4C2078FE210140AA296E
:1012900001D0FFF7C9FA204601F026FC227801218F
:1012A0000A400920C0060903FFF7C5F903481022C8
:1012B0002146FFF74BFF10BD60030020C400002053
:1012C00070470000F0B585B0054644352C7E012CF2
:1012D00001D10224C3E001262E766F7E012F2BD18F
:1012E000002950D0002A4ED0002B344600D1B4E063
:1012F00004920C46697E042901D0052169760026F6
:101300000666C3876B8003214A0301681F464B684A
:1013100093434B6087878463049A026403972F800A
:10132000C66406654F68C2684E4B9A4216D30122C6
:10133000120397434F604AE0039304924124A300B1
:10134000426802249A4200D087E0042F00D084E053
:101350008268002A049A039BC2D07EE001231A030C
:10136000029217434F609F02426D5269BA4214D1F4
:101370004C68039AD207019307D19A0394434C60B7
:10138000C28F530807E0344667E09A0314434C6069
:10139000C28F5208531CC387019B826D5269BA42A7
:1013A00015D11C464A68029B9A434A606A884B687A
:1013B000D20705D1620393434B606A88520805E067
:1013C000620313434B606A885208521C6A80846D22
:1013D000254A226366636B7E042B01D0244F00E014
:1013E000224F049AE762042B01D0234B00E0214BEB
:1013F000049007466037A3626B880C312046FEF7E5
:10140000FFFF1021002801D0012423E0039104995B
:101410000A685068012420435060486D8662C662A5
:1014200006634663CB8F896B0C32FEF7E9FF0399A5
:1014300000280FD1049800680168490603D40168A8
:1014400040220A430260416820220A434260071D8D
:101450000221344638680843386000202876204648
:1014600005B0F0BD01070000731D0008951D0008C0
:101470009F1D0008A91D0008131E00087047704733
:10148000001F4142414188000E490A6804239A43E3
:10149000101808607047C046401E010E01D00120A0
:1014A00070470749074A5060074803680B4003210B
:1014B000890759180160002090600721116070476A
:1014C000FFFFFF0010E000E020ED00E070B53C22DF
:1014D000825C012A01D1022070BD03463C33002208
:1014E0001A703F231B02CC689C430F239D028E6819
:1014F000AE432643DB024C689C43344307231B0363
:101500000D689D43254303235B030C699C432C43D7
:101510004B6923430124A403A343C9691943006809
:101520004164104670BD0000B0B53C22825C012AC7
:1015300001D10220B0BD02463C3202235370012388
:101540001370006844687025AC430D6825438468B7
:1015500045609D07A84205D06E4DA84202D06E4D51
:10156000A84204D18025AC43496821438160002012
:1015700010705370B0BDC046082903D0452204291D
:1015800003D003E04422042900D14322002900D1E2
:101590004222825C012A0AD10246423202230029F9
:1015A00007D0082907D0042907D1537006E001208D
:1015B0007047137002E0937000E0D3700F22114067
:1015C00004228A400068016A91430162016A114362
:1015D00001620121CA03436C134343648A079042AA
:1015E00005D0E44A904202D0E34A904204D1826896
:1015F00007231340062B02D002680A430260002032
:101600007047C046B0B500281DD0044605463C359D
:101610006878002804D100202870204600F016F8D1
:101620000220687001CC214600F0BAFD0120A872AA
:10163000A870E87028716871A871E87128726872E2
:1016400068700020B0BD0120B0BD000081B000680E
:10165000C549884210DC01218A07904218D0C64A49
:10166000904220D0C54A904230D1080218494A68B9
:1016700002434A60496826E0BC49884210D0BC4910
:10168000884219D0BB49884220D10120C00215E010
:101690000F4842680A43426040680840009014E0E6
:1016A000012080040AE00A48416802221143416097
:1016B00040681040009008E00120400404490A6896
:1016C00002430A60096801400091009801B0704728
:1016D000181002403D21415C012918D101463D31DD
:1016E00002220A70006801218A07904205D0A14AAF
:1016F000904202D0A04A904204D18268072313404E
:10170000062B02D002680A430260002070470120C5
:101710007047C046002C014000040040F0B581B085
:101720003C22825C012A02D1022001B0F0BD0246B7
:101730003C3202235370012313704C4F3C46773CDC
:101740000568A8682040A8600E6800244F2E1FDCA2
:101750001F2E35DD202E37D0302E35D0402E00D034
:1017600082E0286A2E6A0127BE432E62AE69F02706
:10177000BE43CF683F013743AF610A26B043496893
:1017800001432962A868472101433020814365E075
:101790006F2E21DD5803864253D01803864220461F
:1017A0005ED0702E60D1A86838404E688F68C968D6
:1017B0003743090239430143A960A86877214CE007
:1017C000002E01D0102E4FD1A86870218843064307
:1017D00007203043A86042E0502E1CD0602E43D139
:1017E0002E6A1020C04300902F6A07402F620F27F7
:1017F0003F03A869B843CF683F030743AF61A02008
:1018000086434868000130432862A8686721014385
:101810000098014022E0286A2E6A9E432E62AE693B
:10182000F027BE43CF683F013743AF610A26B0437C
:10183000496801432962A868572101432020814358
:101840000CE0A86838404E688F68C96837430902C1
:1018500039430143A9609803A9680143A960204660
:101860001470537001B0F0BD1846F9E7FF00FFFF98
:1018700010B586B000210591049103910291019168
:101880000068394A904217DC0122930798422CD015
:10189000394B984245D0394B984263D15004384A6D
:1018A00013680343136012680240009200980920F5
:1018B000C006042210234CE0CD4A904224D0CD4AE9
:1018C000904239D0C94A90424CD1012040042C4A60
:1018D00013680343136012680240009200980520C9
:1018E00003020920C006022233E001204004244AFA
:1018F00013680343136012680240009200980920A5
:10190000C00602220F2324E0012080041C4A136831
:101910000343136012680240009200980222802361
:1019200016E09004164B1C6804431C601B680340BF
:101930000093009823230BE001208204104B1C68C5
:1019400014431C601B6813400093009A0302022298
:101950000C4805920491039102210291019301A97F
:10196000FEF7A0FD06B010BDFF2B0140004801406E
:1019700000440140002C01400004004000200040D1
:101980001410024000040048F0B582B03C23C35C50
:10199000012B01D1022325E104463C3401232370AD
:1019A0000225EA41032A00D91AE1C0467A44127995
:1019B000520097440156233A0268106A136A0126BE
:1019C000B3431362A8438E68064350680B680193C3
:1019D0009569C84FBA4206D0C74B9A4203D0C74B4D
:1019E0009A4200D0B8E00C239E43CB680427BB4347
:1019F000C04F3343BA4200D0B1E0B6E00268106A8B
:101A000001231D02166AAE4316625B0298438B687F
:101A10001F02074350680B680193D569B54B9A4282
:101A200035D03E469A423ED143E00268156A012312
:101A30001803166A8643166250688E6801960E680F
:101A40000096D769AB4EB24205D0AB4EB24202D03F
:101A5000AA4EB24264D19E03B0434E69B60106431A
:101A60005FE00268106A136A1025AB4313622023FB
:101A700098438B681F01074350680B680193936973
:101A80009C4DAA421ED03E46AA4225D12AE00326FA
:101A9000B602B743584BFF3BCE6836021E40954B0B
:101AA0003E439A4205D0944B9A4202D0934B9A42BD
:101AB00021D103231B0398434B698F691F433B01CB
:101AC000034319E0C026B743CE6836014025AE4334
:101AD000884D3E43AA4205D0874DAA4202D0874D89
:101AE000AA424AD10325AD02A8434D698F692F430D
:101AF000BD00054342E0034610461C30536073238B
:101B00009D43019B1D43D5614B68D3631662D36926
:101B100008251D43D561D3690425AB43D3615AE041
:101B2000064610461C30566073263602B743009EA8
:101B300036023E43D6614E6816645E03B543019E8D
:101B400036032E431662DD02D6692E43D6619B0210
:101B5000D5699D43D56127E03346BA4205D0664E2C
:101B6000B24202D0654EB24221D103263602B043C2
:101B70004E698F6906433E431AE005461046183009
:101B8000556073252D02AB43019D2D021D439561C8
:101B90004B68936316620123DD0296692E439661BA
:101BA0009B0295699D4395610969090214E0064607
:101BB0001046183056607326B543019E3543956133
:101BC0004D6855631362936908251D4395619369B8
:101BD0000425AB439361096902680A43026000234C
:101BE00000202070184602B0F0BDC046002C014015
:101BF0000048014000440140FFFBFFFFB0B5002852
:101C00001DD0044605463C356878002804D10020E4
:101C10002870204600F015F80220687001CC21469B
:101C200000F0BEFA0120A872A870E87028716871EF
:101C3000A871E8712872687268700020B0BD012038
:101C4000B0BD704710B5082903D04122042903D044
:101C500003E04022042900D13F22002900D13E2286
:101C6000825C012A0AD102463E320223002907D0B3
:101C7000082907D0042907D1537006E0012010BDC0
:101C8000137002E0937000E0D3701F221140012214
:101C900013468B400068016A99430162016A194347
:101CA00001621349884212DD1249884205D0124B65
:101CB000984202D0114B984214D1D303446C1C4378
:101CC00044649307984208D0884203D105E0910705
:101CD000884202D00A49884204D1816807230B4018
:101CE000062B02D0016811430160002010BDC046E0
:101CF000FF2B0140002C01400048014000440140FE
:101D00000004004010B586B00021059104910391B4
:101D1000029101910068124A904201D006B010BDB4
:101D200010484268012303939C03224342604268A7
:101D300022400092009A9A040368134303600068EB
:101D40001040009005910320049012200290402042
:101D500001900098044801A9FEF7A4FB06B010BD4D
:101D6000003801401410024000040048FEE77047AC
:101D7000704780B5406A01684A6803239A434A6005
:101D8000016E10220A4302665D2101224254FFF7D0
:101D900011F980BD80B5406AFFF792FA80BD80B529
:101DA000406AFFF76CFB80BD70B50546446AFEF7DC
:101DB0004BFC024628680068800626D420684168EB
:101DC0002025A94341600321C943A368002B04D106
:101DD00041239B0066689E4200D0891C26464636F9
:101DE00043680B4043606421204600F05BF8002804
:101DF00000D02566002030800120F075206E00287C
:101E000003D02046FFF7D6F870BD2046FFF73AFA18
:101E100070BDF0B581B00646446AFEF715FC054674
:101E200030680068800638D4264646362068416807
:101E30002027B943416003200090C102642220465C
:101E40002B4600F06FF800280FD1642120462A4667
:101E500000F0D8F8002808D10098410264222046FA
:101E60002B4600F05FF8002805D0206E384320662E
:101E7000206E3843206620684168009A9143416093
:101E80000020E08730800120F075206E002804D00B
:101E90002046FFF78FF801B0F0BD2046FFF7EEFABD
:101EA00001B0F0BDF0B581B015460E4604464120A4
:101EB00087006068B8420CD1A0680121CA03904233
:101EC00002D08902884204D12068016840229143EF
:101ED0000160204631462A4600F094F8002806D0DA
:101EE000206E202101432166032001B0F0BD61680E
:101EF0000020B94213D1A1680122D303994202D034
:101F0000920291420BD103214902074620463246F4
:101F10002B4600F007F8014638460029E0D101B011
:101F2000F0BD0000F0B589B01E4614460F46029081
:101F300007A800250570FEF787FB301A06940419E0
:101F4000FEF782FB029A04905B480068232141431C
:101F5000080D05946043089010680390806838422B
:101F600024D010465C30019003E01068806838424D
:101F70001CD003267002874204D10398007B07A976
:101F8000087007980698401CEFD01446FEF75CFBDB
:101F90000499401A059988420AD208980899491E5E
:101FA000089100282246E0D10590DEE72E4626E083
:101FB000234620684168E022914341604121890025
:101FC00062688A420CD199680122D3039942234660
:101FD00002D09202914203D10168402291430160F4
:101FE00001214A039B6A934205D10368934303602E
:101FF0000368134303600020019A1070517030464B
:1020000009B0F0BDF0B583B016460D460446FEF7A4
:102010001BFB301A4719FEF717FB064626480068D7
:102020004001000D784302902068806800210191F2
:10203000000602D4019803B0F0BD20465C30009049
:1020400003E0206880680006F4D5681CF9D0FEF72C
:10205000FBFA801BB84207D202980299491E0291EE
:102060000028EED10746ECE720684168E022914362
:1020700041604121890062688A420BD1A168012236
:10208000D303994202D09202914203D101684022C7
:102090009143016001214A03A36A934205D1036879
:1020A000934303600368134303600020009A107099
:1020B0005170032003B0F0BD00000020704780B5D0
:1020C000FEF73AFB80BDB0B598B00BAD281D3021AE
:1020D000FEF7AEF80120139028210B9100241494F0
:1020E0001290069405940494039402942846FEF7F3
:1020F00031FD002800D0FEE70A94099403200890DF
:102100000720079007A801252946FEF731FC002883
:1021100000D0FEE70395019501A8FEF793FB002888
:1021200000D0FEE7FEF7D4FC7D21C90000F0F0FDF1
:10213000FFF7B2F90420FFF7A3F9E0432146224656
:10214000FEF756FB18B0B0BD1248026801210A43E1
:1021500002604268104B1340436002680F4B13400B
:1021600003608A040368934303603F2212044368B8
:1021700093434360C26A0F239A43C262FF22D43260
:10218000036B93430363426B8A4342630021816084
:102190007047C046001002400CB8FF08FFFFF6FE73
:1021A000B0B5056801229407A04205D0214B9842A2
:1021B00002D0214B984204D170239D434B682B439E
:1021C00000E02B461D4DA84208DCA0420FD01A4C5F
:1021D000A0420CD01C4CA04209D029E0154CA042D2
:1021E00005D0174CA04202D0164CA04220D10324A7
:1021F0002402A343CC681C4380239C434B692343A4
:1022000003608B68C3620B6883620A4B984205D0F7
:102210000B4B984202D00B4B984201D109690163E4
:1022200042610169C90702D0016991430161B0BDF2
:102230001C46E1E7002C014000040040FF2B014058
:10224000004801400044014000200040B0B5416A10
:102250000A070CD4CA0714D18A071CD44A0724D40D
:10226000CA062CD48A0634D44A063CD44CE0012257
:10227000D20303685C689443426B22435A60CA07E6
:10228000EAD00122520403685C689443826A2243C4
:102290005A608A07E2D50122120403685C689443FD
:1022A000C26A22435A604A07DAD5012292040368BF
:1022B0005C689443026B22435A60CA06D2D501225D
:1022C000120303689C689443826B22439A608A06D7
:1022D000CAD50122520303689C689443C26B22430F
:1022E0009A604A0610D501221305026854689C437F
:1022F000056C2C4354609D4206D103235B05546852
:102300009C43436C23435360090607D50121C9044C
:10231000026853688B43806C18435060B0BD000066
:10232000F0B583B00446064678360027F760FEF71E
:102330008BF903462068006800071ED528480090E6
:10234000012002904105002220463D461F4600F034
:10235000F1F83B462F4600280FD0EFF3108002998A
:1023600081F3108821680A6880239A430A6080F309
:102370001088032020227C212EE02068006840077E
:1023800023D5174800900125A9050022204600F01A
:10239000D1F8002819D0EFF3108085F310880921B7
:1023A0004901226813688B43136080F31088EFF3B0
:1023B000108085F3108821688A68AA438A6080F3B8
:1023C000108803202022802106E02020E067B060F2
:1023D000276664213A4638466250377003B0F0BD34
:1023E000FFFFFF0170B5044600680168474A0A40D4
:1023F000A16823690B4365691D431543E1690D43DA
:1024000005600322120343689343E2681A43426063
:10241000A269236A13430B221202856895431D4368
:1024200085603B4A904209D03A4A904208D13A48E6
:1024300000688007000F39A2135802E0002300E073
:1024400010230125EA033948914211D1082B53D8B2
:102450000026C0467B441B795B009F44044D264DFB
:102460001B4D4D4D2500FEF737FB00281FD13DE0E9
:10247000082B46D80026C0467B441B795B009F444E
:10248000044027400E4040402600FEF725FB002870
:1024900020D12BE0FEF72EFB002808D126E0FEF726
:1024A00029FB002816D121E0104600281ED040004C
:1024B00061684A08101800F02BFC0246103A1C49CB
:1024C0008A4214D201400007400F08430CE0104636
:1024D00000280BD061684A08101800F019FC01466A
:1024E0001039134A914202D22168C8603546002053
:1024F000A066E066284670BD002001260028D6D1DF
:10250000F4E7002001260028E4D1EFE7F369FFEFAC
:10251000004400400038014030100240000000003C
:1025200004000000080000000200000000127A0011
:10253000F0FF0000F0B585B004930F460446006834
:10254000C0690840401A4142414100208A4200D0FF
:102550008DE0164602902046783001900A9D0120B9
:102560000090C002039007E02068C0693840C01B9B
:10257000414241418E4245D1681CF5D0FEF764F8D6
:1025800001460320002D00D171E0049A891AA94266
:102590006DD8206801684907E6D5402FE4D0802F28
:1025A000E2D0C169090730D4C169039A1142DBD076
:1025B00003990162EFF31080012282F31088092150
:1025C000490123681D688D431D6080F31088EFF377
:1025D000108082F3108821688B6893438B6080F3AE
:1025E0001088236E03202021012B38D1EFF31083B4
:1025F00082F31088226815681026B543156083F3AE
:1026000010882CE0029805B0F0BD08210162EFF3BC
:102610001080009E86F310880922520123681D68ED
:1026200095431D6080F31088EFF3108086F31088C7
:1026300022689368B343936080F31088206E01286A
:102640000CD1EFF31082012080F3108823681D68FD
:102650001026B5431D6082F3108800E0304620222A
:10266000019B9A6000222266A2661A70D96005B0AA
:10267000F0BD00009AB0FEF769F8FFF724FD0126CF
:102680007004FD4A116801431160116801400B910B
:102690000B98B004116801431160116801400B915F
:1026A0000B980920C50637030024284639462246E0
:1026B000FDF7C1FF0E940D940C960B970BA9049592
:1026C00028463D46FDF7EEFEF849086830430860AD
:1026D000086830400B900B980A273846214622465E
:1026E000FEF786F83846FEF777F8691EF048F14A9B
:1026F00014C0016041600838FDF7E6FF002800D0F3
:10270000FEE70396EC480721046244628462C162DA
:1027100004634463E9490F22D7013A46803A12C064
:10272000046042608460C46004610838FEF744FCC1
:10273000002800D0FEE72646E1487F24E14982C018
:10274000066044608660C66006610838FEF75AFF7E
:10275000002800D0FEE70795D94807A9FEF7DEFF5D
:10276000002800D0FEE7D648FFF748FA002800D03E
:10277000FEE706960596D24805A9FEF7D5FE002885
:1027800000D0FEE7149660200290139015961696DE
:10279000179618961996CA4813A93246FFF7F4F807
:1027A000002800D0FEE7C64813A90422FFF7ECF882
:1027B000002800D0FEE7C24813A90822FFF7E4F87A
:1027C000002800D0FEE7BE4813A90C22FFF7DCF872
:1027D000002800D0FEE70F960E960D960C960B96ED
:1027E00012960398400301901090B5480BA9FEF78C
:1027F0006DFE002800D0FEE7B148FFF739F8B24877
:1028000086610399890782C0066044608660083843
:10281000FEF7F8FE002800D0FEE71395F84813A94C
:10282000FEF77CFF002800D0FEE7F548FFF7E6F949
:10283000002800D0FEE708960796F14807A9FEF7A2
:1028400073FE002800D0FEE732460F960D960C96D8
:1028500002980B90EA480BA9FFF796F8002800D0E1
:10286000FEE7E7480BA90422FFF78EF8002800D006
:10287000FEE7E3480BA90822FFF786F8002800D0FE
:10288000FEE7DF480BA90C22FFF77EF8002800D0F6
:10289000FEE7DB48FEF7ECFFD84886618B4982C033
:1028A0000660446086600838FEF7ACFE002800D061
:1028B000FEE71395D14813A9FEF730FF002800D09A
:1028C000FEE7CE48FFF79AF9002800D0FEE7089609
:1028D0000796CA4807A9FEF727FE002800D0FEE7A2
:1028E00032460F960D960C9602980B90C3480BA992
:1028F000FFF74AF8002800D0FEE7C0480BA90422E1
:10290000FFF742F8002800D0FEE7BC480BA90825D5
:102910002A46FFF739F8002800D0FEE7B7480BA990
:102920000C22FFF731F8002800D0FEE7F448FEF74C
:102930009FFFF4488661664982C0066044608660F5
:102940000838FEF75FFE002800D0FEE7ED48FFF7ED
:1029500055F9002800D0FEE732460F960D960C96EA
:1029600002980B90E7480BA9FFF70EF8002800D05B
:10297000FEE7E448FEF77CFFE348564982C0066064
:1029800044608660C66006610838FEF73BFE00289A
:1029900000D0FEE7DC48FFF731F9002800D0FEE761
:1029A0003246149602981390159616961796189616
:1029B0001996D54813A9FEF7E7FF002800D0FEE7D7
:1029C0000F960E960D960C960B96129601981090F7
:1029D000CD480BA9FEF77AFD002800D0FEE7CA48D3
:1029E000FEF746FFC9483C4982C0066044608660E5
:1029F000C66006610838FEF705FE002800D0FEE735
:102A0000C248FFF7FBF8002800D0FEE732461496D4
:102A10000298139015961696179618961996BB4815
:102A200013A9FEF7B1FF002800D0FEE70F960E961F
:102A30000D960C960B96129601981090B3480BA920
:102A4000FEF744FD002800D0FEE7B048FEF710FF77
:102A50002248E1214902224A026041608660C66044
:102A6000066145618661C66106624662FDF7F0FD5A
:102A7000002803D0FEE7C0461410024000F0C2F860
:102A80000A20FDF7FFFC0A4D0B4E164F2846FDF7B6
:102A90004BFE0398C1030498FDF7C8FD0128F5D14A
:102AA000102230463946FEF751FBEFE71410024082
:102AB000B400002000300040C4000020003001407D
:102AC00028010020002C01404802002000040040A2
:102AD000002000400044014000480140D80200208E
:102AE00000380140600300200F214156002904D521
:102AF0007F228A4382490968CA630E214156002910
:102B000004D57F228A437F4909684A630D214156D3
:102B1000002904D57F228A43794909680A640C2177
:102B20004156002904D57F221140774A126851632B
:102B30000B214156002904D57F221140704A1268AA
:102B400051630A214156002904D57F2211406B4A66
:102B50001268916309214156002904D57F22114052
:102B6000664A1268D16308214156002904D57F22A4
:102B70001140624A1268116407214156002904D5A8
:102B80007F221140614A1268516306214156002993
:102B900004D57F221140594A1268516305214156DC
:102BA000002904D57F221140534A1268D1630421C1
:102BB0004156002904D57F221140514A1268916381
:102BC00003214156002904D57F2211404A4A126848
:102BD000516302214156002904D57F221140464A03
:102BE0001268916301214056002800D470477F216C
:102BF00008404149096808647047C04690020020B7
:102C000048020020F0B587B03A480690059004903D
:102C1000039003A8FFF768FF374D2846FEF75AFDDB
:102C20002846FEF7EBFF002428462146FFF70AF866
:102C30000426284631460196FFF704F80821029140
:102C40002846FEF7FFFF0C2728463946FEF7FAFF15
:102C50002A4D2846FEF73EFD2846FEF7CFFF2846C0
:102C60002146FEF7EFFF28463146FEF7EBFF2846E8
:102C7000029E3146FEF7E6FF28463946FEF7E2FFA0
:102C80001F4D2846FEF726FD2846FEF7B7FF2846CB
:102C90002146FEF7D7FF28460199FEF7D3FF2846C5
:102CA0003146FEF7CFFF28463946FEF7CBFF154DDC
:102CB0002846FEF70FFD2846FEF7A0FF28462146CE
:102CC000FEF7C0FF104D2846FEF704FD2846FEF72C
:102CD00095FF28462146FEF7B5FF0C4D2846FEF726
:102CE000F9FC2846FEF78AFF28462146FEF744FCF9
:102CF00007B0F0BD808080802801002048020020BD
:102D00009002002070010020B80100200002002085
:102D100043088B421AD3002203098B4279D3030A5A
:102D20008B425ED3030B8B4242D3030C8B4227D3DF
:102D30000902FF2212BA030C8B4202D312120902BB
:102D400003D0030B8B4233D31AE0D3E0411A804106
:102D5000401C704703460B4371D443088B42F5D3A4
:102D6000002203098B4254D3030A8B4239D3030B4D
:102D70008B421DD3030C8B4202D394466EE0090AAA
:102D8000C30B8B4201D3CB03C01A5241830B8B423E
:102D900001D38B03C01A5241430B8B4201D34B0327
:102DA000C01A5241030B8B4201D30B03C01A52418C
:102DB000C30A8B4201D3CB02C01A5241830A8B4211
:102DC00001D38B02C01A5241430A8B4201D34B02FA
:102DD000C01A5241030A8B4201D30B02C01A52415E
:102DE000CDD2C3098B4201D3CB01C01A5241830912
:102DF0008B4201D38B01C01A524143098B4201D34C
:102E00004B01C01A524103098B4201D30B01C01A76
:102E10005241C3088B4201D3CB00C01A52418308F0
:102E20008B4201D38B00C01A524143088B4201D31D
:102E30004B00C01A5241411A524110007047CA0F4C
:102E400000D04942031000D34042534000229C4628
:102E500003098B422DD3030A8B4212D38901FC2232
:102E600012BA030A8B420CD3890192118B4208D308
:102E7000890192118B4204D3890137D0921100E06D
:102E80008909C3098B4201D3CB01C01A524183097E
:102E90008B4201D38B01C01A524143098B4201D3AB
:102EA0004B01C01A524103098B4201D30B01C01AD6
:102EB0005241C3088B4201D3CB00C01A5241830850
:102EC0008B4201D38B00C01A5241D9D243088B42A6
:102ED00001D34B00C01A5241411A00D2014652415F
:102EE000104663465B1000D34042704763465B1058
:102EF00000D3404201B50021004201D0C943084639
:102F0000C046C04602BD00000000000000000102F3
:102F1000030406070809000000000102030402037D
:102F20000405060708090A0B0C0D0E0F101001020C
:102F3000030405060708090A0B0C0D0E0F1000000C
:102F4000602F000800000020100000001C01000895
:102F5000702F000810000020680900003C010008E4
:102F600000127A00010000000400000000000000D0
:04000005080000C12E
:00000001FF
